{
  "transactions": [
    {
      "hash": "0xffa405b0b95d04dc638ff1fccb9c35e3352e6ecab941dc44e8f820489796ac9e",
      "transactionType": "CALL",
      "contractName": null,
      "contractAddress": "0xb914DAcf01182fB7cee84739d2fCCe39016Fdc3c",
      "function": "setPrice(uint256,uint256)",
      "arguments": [
        "2",
        "100000000000000"
      ],
      "transaction": {
        "type": "0x02",
        "from": "0xbe6beda42fc2f31444385e92371a2acf1acbe8d6",
        "to": "0xb914dacf01182fb7cee84739d2fcce39016fdc3c",
        "gas": "0x1008a",
        "value": "0x0",
        "data": "0xf7d97577000000000000000000000000000000000000000000000000000000000000000200000000000000000000000000000000000000000000000000005af3107a4000",
        "nonce": "0x99",
        "accessList": []
      },
      "additionalContracts": [],
      "isFixedGasLimit": false
    }
  ],
  "receipts": [
    {
      "transactionHash": "0xffa405b0b95d04dc638ff1fccb9c35e3352e6ecab941dc44e8f820489796ac9e",
      "transactionIndex": "0x1",
      "blockHash": "0x3508b41c30e75fbdb850a8c656b9e3d2cb32f01092a48cd4aeb839f727831213",
      "blockNumber": "0xc74ea2",
      "from": "0xbE6beda42FC2f31444385E92371a2ACF1ACBE8D6",
      "to": "0xb914DAcf01182fB7cee84739d2fCCe39016Fdc3c",
      "cumulativeGasUsed": "0x1651f",
      "gasUsed": "0xb9bc",
      "contractAddress": null,
      "logs": [
        {
          "address": "0xb914DAcf01182fB7cee84739d2fCCe39016Fdc3c",
          "topics": [
            "0x8e607bc8606ee138f1ef32ddb5c34945bca09e11f711210f317bebe916b45a88",
            "0x0000000000000000000000000000000000000000000000000000000000000002"
          ],
          "data": "0x00000000000000000000000000000000000000000000000000005af3107a4000",
          "blockHash": "0x3508b41c30e75fbdb850a8c656b9e3d2cb32f01092a48cd4aeb839f727831213",
          "blockNumber": "0xc74ea2",
          "transactionHash": "0xffa405b0b95d04dc638ff1fccb9c35e3352e6ecab941dc44e8f820489796ac9e",
          "transactionIndex": "0x1",
          "logIndex": "0x0",
          "removed": false
        }
      ],
      "status": "0x1",
      "logsBloom": "0x04000000000000000000000000000000000000000000000000000010000000000000000100000000000000000000000002000000000000000000000000000000000000000000000000000000000000000000000000000000000000000000000000000000000000000000000000000000000000000000000000000000000000000000000000001000000000000000000000000000000000000000000000000000000000000000000000000100000800000000000000000000000200000000000000000000000000000000000000000000000000000000000000000000000000000000000000000000000000000000000000000000008000000000000000000000",
      "type": "0x2",
      "effectiveGasPrice": "0x2c0cd2757"
    }
  ],
  "libraries": [],
  "pending": [],
  "returns": {},
  "timestamp": 1721891882,
  "chain": 84532,
  "commit": "5d1184c"
}